:020000040800F2
:10000000280D002055220008ED070008EF07000822
:10001000F3070008F7070008FB07000800000000CE
:10002000000000000000000000000000FF070008C2
:100030000108000800000000030800080508000887
:100040006F2200086F2200086F220008670E000868
:100050006F2200086F2200086F2200086F2200083C
:100060006F2200086F2200086F2200086F2200082C
:100070006F2200086F2200086F2200086F2200081C
:100080006F2200086F2200086F2200086F2200080C
:100090006F2200086F2200086F2200086F220008FC
:1000A0006F2200086F2200086F2200086F220008EC
:1000B0006F2200086F220008E14500086F22000847
:1000C0006F2200086F2200086F2200086F220008CC
:1000D0006F220008C92100086F2200086F22000863
:1000E0006F2200086F2200086F2200086F220008AC
:1000F0006F2200086F2200086F2200086F2200089C
:100100006F2200086F2200086F2200086F2200088B
:100110006F2200086F2200086F2200086F2200087B
:100120006F2200086F2200086F2200086F2200086B
:1001300000F002F800F06BF80AA090E8000C82448E
:100140008344AAF10107DA4501D100F060F8AFF26B
:10015000090EBAE80F0013F0010F18BFFB1A43F0A5
:1001600001031847C87E0000E87E00000A444FF0F3
:10017000000C10F8013B13F0070408BF10F8014B06
:100180001D1108BF10F8015B641E05D010F8016B4B
:10019000641E01F8016BF9D113F0080F1EBF10F8AF
:1001A000014BAD1C0C1B09D16D1E58BF01F801CBD2
:1001B000FAD505E014F8016B01F8016B6D1EF9D555
:1001C0009142D6D37047000000230024002500266A
:1001D000103A28BF78C1FBD8520728BF30C148BFAA
:1001E0000B607047642904F0CF87752904F0CC8731
:1001F000782905F00580632905F05981732905F0F8
:100200005E81002070471FB51FBD10B510BD05F001
:1002100089F91146FFF7F7FF00F008F805F0A7F994
:1002200003B4FFF7F2FF03BC01F074FF0EB5002525
:100230000024002600200290002701F001FF4FF467
:10024000A06002F027F84FF4E13001F071FF00F0F8
:10025000CBFB01F0FBFA002000F030FF002000F0A3
:100260003BFFFE480068FE49B0FBF1F000F0FF08DC
:10027000FC4841684046884700F095FD00F0DAFBF5
:100280005A21F94801F067FD01200823F7A2022155
:100290000090184601F018F901200823F6A2142155
:1002A0000090184601F010F90120102300221E21B1
:1002B0000090082001F07EF90120102302461E2143
:1002C0000090182001F076F90120102302221E214F
:1002D00000902A2001F06EF90120102303221E2134
:1002E00000903A2001F066F901201023E5A21E21BA
:1002F00000904A2001F0E8F84FF47A7001F0DDFE3A
:100300004FF47A7001F0D9FE49E200F017FF0020A7
:1003100000F0AAFB02909DF8080000286FD09DF81D
:100320000800012802D0022805D105E0681C85B22A
:10033000062D00D1002564E1601C84B2022C00D19E
:1003400000246DBB012C14D10A2001236922002155
:100350000090184601F0ABFD4FF4967001F0ADFE31
:100360000A2001230022B4210090184601F09FFDCD
:1003700046E1002CFCD10A200123692200210090D3
:10038000184601F094FD4FF4967001F096FE0A2095
:1003900001230022B4210090184601F088FD2FE1CE
:1003A000012D5AD1012C2BD10320012314225021DD
:1003B0000090052001F07BFD192001F07EFE032056
:1003C0000123502200210090052001F070FD6420DF
:1003D00001F073FE0A2001230022B42100900320C3
:1003E00001F065FD4FF4FA7001F067FE0A20012369
:1003F0005A2200210090032001F059FD00E101E1A3
:10040000002CB5D103200123142250210090052097
:1004100001F04DFD192001F050FE03200123502270
:1004200000210090052001F042FD642001F045FE0E
:100430000A2001230022B4210090032001F037FD9F
:100440004FF4FA7001F039FE0A2001235A220021EC
:100450000090032001F02BFDD2E0022D21D1012CD0
:100460000ED18C220021072001F003FD40F2DC5068
:1004700001F023FE50220021072001F0FAFCBFE02A
:10048000002C8CD18C220021072001F0F2FC40F2DC
:10049000DC5001F012FE50220021072001F0E9FC9F
:1004A000AEE0032D21D1012C0ED18C220021092098
:1004B00001F0DFFC40F2DC5001F0FFFD5022002192
:1004C000092001F0D6FC9BE0002C97D18C22002162
:1004D000092001F0CEFC40F2DC5001F0EEFD50228C
:1004E0000021092001F0C5FC8AE0042D72D1012C05
:1004F00066D10A200123692200210090184601F0EC
:10050000D6FC4FF4967001F0D8FD0A20012300229A
:10051000B4210090184601F0CAFC4FF4967001F027
:10052000CCFD03200123142250210090052001F06E
:10053000BEFC192001F0C1FD03200123502200213F
:100540000090052001F0B3FC642001F0B6FD0A2004
:1005500001230022B4210090032001F0A8FC4FF4F5
:10056000FA7001F0AAFD0A2001235A22002100900E
:10057000032001F09CFC4FF4967001F09EFD8C224C
:100580000021072001F075FC40F2DC5001F095FDE0
:1005900050220021072001F06CFC4FF4967001F00E
:1005A0008CFD8C220021092001F063FC40F2DC501C
:1005B00001F083FD50220021092001F05AFC1FE0C8
:1005C000F4B90A2001230022B421009001F06FFC4D
:1005D00016E0FFE7052D13D1012C08D10A200123D5
:1005E000B422002100900B2001F061FC08E03CB92E
:1005F0000A2001230022B42100900B2001F057FCB7
:1006000000BF02E00A2001F058FD1F488078B84280
:1006100072D01D48877801200821CDE900101A48C2
:10062000828804230221082000F07EFF0120082197
:10063000CDE900101448827902231946282000F0E1
:1006400073FF01200821CDE900100F48C279022371
:100650001946392000F068FF0B4817E00000002021
:1006600040420F007C00002000007042202020202B
:100670002D20202D2020000020203A20203A20206C
:10068000000000003A00000070010020007A0728F6
:1006900045D2DFE800F0040D161F28323B00012090
:1006A00008233FA2022100904A2000F00DFF36E00F
:1006B000012008233CA2022100904A2000F004FF00
:1006C0002DE0012008233AA2022100904A2000F0E8
:1006D000FBFE24E00120082337A2022100904A20DB
:1006E00000F0F2FE1BE00120082336A20221009058
:1006F0004A2000F0E9FE12E03BE00120082334A28A
:10070000022100904A2000F0DFFE08E001200823CB
:1007100031A2022100904A2000F0D6FE00BF00BFA7
:1007200001200821CDE900102E480278022314216F
:10073000082000F0F9FE01200821CDE90010294829
:100740004278022314211A2000F0EEFE0120082135
:10075000CDE9001023488278022314212C2000F0D8
:10076000E3FE2148006808B9012000E000201E498E
:100770000860681C86B20120102103463246CDE98C
:1007800000101E21502000F0CFFE0120082103465A
:100790002246CDE900101E215A2000F0C5FEB4E526
:1007A00053756E64617900004D6F6E64617900006D
:1007B00054756573646179005765646E657364612F
:1007C000790000005468757273646179000000005C
:1007D000467269646179000053617475726461796D
:1007E000000000007001002094812142704700BF8A
:1007F000FEE700BFFEE700BFFEE700BFFEE7704771
:1008000070477047704700000CB5002001900090C1
:100810006C48006840F480306A49086000BF69484D
:10082000006800F4003000900198401C019000988E
:1008300018B90198B0F5A06FF1D16248006800F4D2
:10084000003010B10120009001E0002000900098DD
:10085000012843D15C48006840F010005A49086004
:100860000846006820F0030008600846006840F071
:100870000200086053484068524948600846406892
:1008800048600846406840F4806048600846406818
:1008900020F47C1048600846406840F4E810486046
:1008A0000846006840F08070086000BF4548006856
:1008B00000F000700028F9D04248406820F00300A2
:1008C000404948600846406840F00200486000BF68
:1008D0003C48406800F00C000828F9D10CBD10B568
:1008E000FFF792FF10BD10B53648006840F00100D8
:1008F0003449086008464068344908403149486036
:1009000008460068324908402E49086008460068D9
:1009100020F4802008600846406820F4FE0048600B
:100920004FF41F008860FFF7DAFF4FF0006029499D
:10093000086010BD10B5002100200022214B5B682B
:1009400003F00C0121B1042906D0082928D107E0C1
:10095000214B224C236027E01F4B204C236023E0D7
:10096000184B5B6803F47010164B5B6803F480321D
:10097000022303EB904022B9194B4343174C2360E9
:100980000DE0104B5B6803F4003323B1144B434379
:10099000124C236003E0104B4343104C236003E0F0
:1009A0000D4B0E4C236000BF00BF064B5B68C3F3CA
:1009B00003130C4CE15C094B1B68CB40074C2360D4
:1009C00010BD000000100240002002400000FFF8AF
:1009D000FFFFF6FE08ED00E000127A0000000020A4
:1009E00000093D000400002008B50121482002F064
:1009F000A3F82020ADF8000010208DF8030003209C
:100A00008DF802006946094801F074FD202107486D
:100A100001F01DFE2020ADF800006946044801F0F9
:100A200069FD2021024801F012FE08BD000C0140C2
:100A30000018014008B50121442002F07DF81C2077
:100A4000ADF8000048208DF803006946354801F0F4
:100A500051FD0120ADF8000028208DF80300694603
:100A6000314801F047FD08BD10B5044614B101201E
:100A70002E4908702D480078002837D010212948C9
:100A800001F0CBFD78B10821264801F0C6FD50B138
:100A90000421244801F0C1FD28B10121224801F0C0
:100AA000BCFD012822D10A2001F007FB00201F49CC
:100AB000087010211B4801F0B0FD08B9012010BDDD
:100AC0000821184801F0A9FD08B90220F7E7042120
:100AD000144801F0A2FD08B90320F0E701211248F3
:100AE00001F09BFD01281BD10420E8E710210D48EF
:100AF00001F093FD012813D108210A4801F08DFD72
:100B000001280DD10421074801F087FD012807D1F4
:100B10000121054801F081FD10B901200349087049
:100B20000020CCE70018014000080140140000201C
:100B300008B503208DF8000000208DF801008DF825
:100B4000020001208DF80300684601F0A8FB08BDF3
:100B5000F0B503460C461546642093FBF0F0C6B290
:100B6000642093FBF0F700FB1730C1B2132E02DDB7
:100B700001F16400C1B20846CF1701EB977701EB92
:100B8000A707BAB2072092FBF0F700FB172082B24A
:100B90005719601EDFF8D4C31CF80000384482B235
:100BA000CF1701EB9777BF10A1EB87071FB9032C75
:100BB00001DA501E82B2072092FBF0F700FB1720EB
:100BC000C0B2F0BD0146CA1701EB92729210A1EBC0
:100BD000820292B9642091FBF0F200FB121050B92E
:100BE0004FF4C87091FBF0F200FB121008B901201D
:100BF00070470020FCE70120FAE70020F8E770B515
:100C000000260024002502F01FFA0646D848B6FB4D
:100C1000F0F4D8480088A0423CD0D6490C8040F27D
:100C2000B27510E02846FFF7CDFF40B1B4F5B77FAD
:100C300002D3A4F5B77404E0681C85B206E0A4F200
:100C40006D14681C85B2B4F5B67FEBD800BFCA48F6
:100C50008580002516E0C8498888FFF7B3FF30B1CA
:100C6000012D04D11D2C01D31D3C09E00CE0C3482B
:100C7000405DA04203D8C148405D241A00E003E073
:100C8000681C85B21C2CE6D200BF681CBA4988716A
:100C9000601CC871B648B6FBF0F100FB11644FF45C
:100CA0006160B4FBF0F0B44908704FF46160B4FBCC
:100CB000F0F100FB11403C21B0FBF1F0AE4948706F
:100CC0004FF46160B4FBF0F100FB11403C21B0FB3C
:100CD000F1F201FB1200A84988700B46DA79997984
:100CE0009888FFF735FFA4490872002070BD2DE9F0
:100CF000F05F06460F4690469946DDE90AAB0024B0
:100D000040F2B270864203DB40F63300864202DDD9
:100D10000120BDE8F09F40F2B2750AE02846FFF7D7
:100D200051FF10B19648044401E096480444681C01
:100D300085B2B542F2DB781EC7B2002510E08F48BD
:100D4000405D40F2A321484304EBC0143046FFF756
:100D500039FF18B1012D01D185480444681C85B2C2
:100D6000BD42ECDBA8F1010040F2A321484304EBB3
:100D7000C014C9EB4910C0EB092004EB0014CAEB06
:100D80000A1004EB80045C4401214FF0C05001F0D4
:100D9000E0FE012001F007FD204602F05EF902F0BE
:100DA0008FF90020B5E71CB5002401214FF0C05099
:100DB00001F0CFFE012001F0F6FC042001F00DFB54
:100DC00045F25001884240D001F0D2FA012001F0F2
:100DD00020FE04E0601CC4B20A2001F06EF941203C
:100DE00001F07FFD08B9FA2CF4DBFA2C01DB0120BD
:100DF0001CBD4FF4807001F028FE012001F02BFE95
:100E000002F05EF902F065F90121084602F0FCF8F3
:100E100002F056F902F005F947F6FF7002F02AF9E0
:100E200002F04EF9002019210F230722CDE900100E
:100E30000A2140F2E570FFF75AFF02F0FBF845F295
:100E40005001042001F0BDFA07E002F042F901214F
:100E5000084602F0D9F802F033F9FFF769FEFFF710
:100E6000CEFE0020C4E70EB5012002F057F908B10C
:100E7000FFF7C5FE022002F051F9A0B1022002F0F6
:100E80005DF9FFF7BCFE3C4880783B4949783A4A17
:100E90001278CDE9002102903748C37982798188A0
:100EA00039A004F015F9052002F048F902F008F91C
:100EB0000EBD2DE9F05F06460F4690469946DDE9E6
:100EC0000AAB002440F2B270864203DB40F63300E6
:100ED000864202DD0120BDE8F09F40F2B2750AE0D3
:100EE0002846FFF76FFE10B12548044401E025486D
:100EF0000444681C85B2B542F2DB781EC7B20025F7
:100F000010E01E48405D40F2A321484304EBC014AA
:100F10003046FFF757FE18B1012D01D114480444A3
:100F2000681C85B2BD42ECDBA8F1010040F2A321B0
:100F3000484304EBC014C9EB4910C0EB092004EB93
:100F40000014CAEB0A1004EB80045C4401214FF04A
:100F5000C05001F0FEFD012001F025FC204602F00A
:100F600097F802F0ADF80020B5E7000058610008DE
:100F7000805101001600002070010020646100080B
:100F80000085E2018033E101416C61726D2054699A
:100F90006D653A25642D25642D25642025643A2548
:100FA000643A25640A000000032000BF011EA0F17E
:100FB0000102D0B2FAD1704710B52021FB4801F0F0
:100FC00048FB4FF48051FA4801F041FBFFF7ECFF7A
:100FD0002021F64801F03BFB10BD10B52021F3485D
:100FE00001F035FBFFF7E0FF4FF48051F04801F0CE
:100FF0002EFBFFF7D9FF4FF48051ED4801F029FB9C
:10100000FFF7D2FF10BD70B5044600251DE004F0C7
:10101000800020B12021E54801F019FB03E02021E8
:10102000E24801F016FBFFF7BFFF4FF48051E048A4
:1010300001F00DFBFFF7B8FF4FF48051DC4801F0E1
:1010400008FB6006040E681CC5B2082DDFDB70BD0E
:1010500010B52021D54801F0FAFA4FF48051D44858
:1010600001F0F5FAFFF7A0FF2021D04801F0F1FAD6
:10107000FFF79AFF4FF48051CD4801F0EAFAFFF7ED
:1010800093FF10BD70B505460C46FFF7E1FF7820D1
:10109000FFF7B9FFFFF7A1FF1CB14020FFF7B3FF37
:1010A00002E00020FFF7AFFFFFF797FF2846FFF7AA
:1010B000AAFFFFF792FFFFF77FFF70BD10B5044650
:1010C0001CB90021A620FFF7DDFF012C03D1002170
:1010D000A720FFF7D7FF10BD10B504463CB900218B
:1010E000C820FFF7CFFF0021A120FFF7CBFF012C85
:1010F00007D10021C020FFF7C5FF0021A020FFF786
:10110000C1FF10BD10B500218D20FFF7BBFF0021EE
:101110001420FFF7B7FF0021AF20FFF7B3FF10BD8A
:1011200010B500218D20FFF7ADFF00211020FFF743
:10113000A9FF0021AE20FFF7A5FF10BD70B5002468
:101140002BE004F1B001C8B20021FFF79BFF0021A2
:101150000220FFF797FF00211020FFF793FFFFF712
:1011600077FF7820FFF74FFFFFF737FF4020FFF7AB
:101170004AFFFFF732FF002509E08E4901EBC50168
:10118000085DFFF740FFFFF728FF681CC5B2802D00
:10119000F3DBFFF711FF601CC4B2082CD1DB70BD7C
:1011A00070B500240CE0002506E00020814901EB29
:1011B000C5010855681CC5B2802DF6DB601CC4B2A1
:1011C000082CF0DBFFF7BAFF70BDF0B514460B46F4
:1011D000CF1701EB5777C7F3C702CF1701EB57774C
:1011E000FF10A1EBC707FEB20123B340DDB24CB143
:1011F000704B03EBC0039B5C2B436E4F07EBC007A8
:10120000BB541AE06B4B03EBC0039B5CDB43694FA1
:1012100007EBC007BB54674B03EBC0039B5C2B433E
:10122000644F07EBC007BB54624B03EBC0039B5CEE
:10123000DB43604F07EBC007BB54F0BD2DE9FF4F08
:1012400084B081468A460020029083460698A0EB2F
:1012500009040798A0EB0A06CDF80490CDF800A089
:10126000002C01DD012705E00CB9002702E04FF05A
:10127000FF376442002E02DD4FF0010806E016B988
:101280004FF0000802E04FF0FF386642B44201DD43
:10129000254600E03546002003901EE0009AD1B2BA
:1012A000019AD0B2119AFFF790FF02982044029061
:1012B000B3440298A84205DD0298401B02900198B1
:1012C00038440190AB4504DDABEB050B009840447E
:1012D00000900398401C80B20390691C03988842D8
:1012E000DCDB08B0BDE8F08F2DE9F04306460F4681
:1012F00090460025444643E03A1BD1B27219D0B261
:101300000122FFF762FF3A1BD1B2721BD0B2012259
:10131000FFF75BFF3A19D1B2721BD0B20122FFF77F
:1013200054FF3A19D1B27219D0B20122FFF74DFF22
:101330007A19D1B23219D0B20122FFF746FF7A1BD7
:10134000D1B23219D0B20122FFF73FFF7A1BD1B2DE
:10135000321BD0B20122FFF738FF7A19D1B2321B0B
:10136000D0B20122FFF731FF6D1C05FB05F004FB35
:10137000040008FB1809B9F1000F01DD641E6D1EA1
:101380006000604308FB08F18842B5DABDE8F083ED
:101390002DE9FE4F0746884692461C460197CDF838
:1013A0000080082C08D14FF0060925E00014014008
:1013B000002001407A0100202046E31704EB53731C
:1013C000DB1021464FEAE47C04EB5C7C4FEAEC0C3A
:1013D000A4EBCC0CBCF1000F02D04FF0010C01E0EB
:1013E0004FF0000C6344224604EBD27C4FEA6C0CB5
:1013F00003FB0CF303F0FF09AAF12000C6B200259D
:101400005EE0082C07D106EB4600FE4901EB4000E8
:1014100010F805B01DE00C2C07D106EB4600FA4988
:1014200001EB800010F805B013E0102C05D1F7484F
:1014300000EB061010F805B00BE0182C07D106EBF6
:10144000C600F34901EB800010F805B001E0BDE8EB
:10145000FE8F002002901CE00BF0010028B14146F5
:1014600038460C9AFFF7B1FE09E00C9808B9012044
:1014700000E00020024641463846FFF7A6FE4FEA4C
:101480006B0B08F1010000F0FF080298401CC0B28D
:10149000029002980828DFDB781CC7B2082C0BD01A
:1014A00004EBD4714A100199791A8A4204D1019F40
:1014B00000980830C0B20090DDF80080681CC5B20A
:1014C0004D459EDB00BFC2E72DE9F84106460F46B9
:1014D00014461D46DDF81C8013E0CDF8008022780C
:1014E0002B4639463046FFF753FF082D02D1B01D79
:1014F000C6B205E0284605EBD07106EB6101CEB21D
:10150000641C2078202802DB20787E28E5DDBDE8F9
:10151000F88110B50246012000E050430B1EA1F1F6
:101520000104E1B2F9D110BD2DE9FF4F82B00646AA
:1015300091461F46DDE90F4A4FF0000B082C01D100
:101540004FF0020B002530E0781B401EC1B20A208C
:10155000FFF7DFFFB9FBF0F00A21B0FBF1F201FB6E
:101560001208B8F1000F0ED104EBD4710BEB61013E
:1015700001FB0561C8B223463022CDE900A40399DE
:10158000FFF706FF0FE004EBD4710BEB610101FBE9
:101590000561C8B208F13001CAB22346CDE900A402
:1015A0000399FFF7F5FE681CC5B2BD42CCDB06B05F
:1015B000BDE8F08F2DE9FC4F0746884616461C46CD
:1015C000BB46CDF804802046E21704EB5272D210DD
:1015D0002146E31704EB5373DB10A4EBC3030BB1F9
:1015E000012300E000231A44624392B200920025D6
:1015F00055E0102C05D1874800EB461010F805A0E7
:101600001BE0182C07D106EBC600834901EBC00094
:1016100010F805A011E0202C05D1804800EBC61081
:1016200010F805A009E0402C05D17D4800EB4620CC
:1016300010F805A001E0BDE8FC8F4FF000091CE0A8
:101640000AF0010028B1414638460B9AFFF7BDFD6C
:1016500009E00B9808B9012000E00020024641464D
:101660003846FFF7B2FD4FEA6A0A08F1010000F0C0
:10167000FF0809F1010000F0FF09B9F1080FDFDBF5
:10168000781CC7B2A7EB0B00A04204D15F460198BB
:101690000830C0B20190DDF80480681C85B2009863
:1016A0008542A6DB00BFC6E708B58046894692465C
:1016B000002600274BE04FB9102332461821802026
:1016C000CDF800A0FFF776FF701CC6B2464522D1C8
:1016D0004FF0000B1AE0012410E000250AE0514809
:1016E00000EBC400415D601E4E4A02EBC000415554
:1016F000681CC5B2082DF2DB601CC4B2902CECDB78
:10170000FFF71CFD0BF1010000F0FF0B4FEA091081
:101710005845E0DC0026781CC7B2102F00D1002706
:10172000012410E000250AE03E4800EBC400415DC2
:10173000601E3C4A02EBC0004155681CC5B2082D32
:10174000F2DB601CC4B2902CECDBFFF7F7FCB2E7D5
:101750002DE9FF4F05460E4617461C46DDF838902A
:101760004FF0000A0095B3462046E21704EB527290
:10177000D2102146E31704EB5373DB10A4EBC30331
:101780000BB1012300E000231A44D4B24FF000084B
:1017900058E0002003904EE00D9810F80A000290E7
:1017A0000AF101001FFA80FA002001901DE0029862
:1017B00000F0010028B14A4631462846FFF705FDF2
:1017C0000AE0B9F1000F01D1012000E0002002463B
:1017D00031462846FFF7F9FC029840100290701C31
:1017E000C6B20198401CC0B2019001980828DEDB07
:1017F000681CC5B20098281AB84217D1009D0BF199
:10180000080011E070610008986300080C68000887
:10181000FC6D0008587B0008587C0008A07C00087C
:10182000207D00087A01002000F0FF0B5E4603983F
:10183000401CC0B203900398B842ADDB08F1010030
:1018400000F0FF08A045A4DBBDE8FF8F08B501212B
:101850004FF4907001F070F94FF48050ADF8000033
:1018600014208DF8030003208DF8020069464F48CC
:1018700000F040FE4FF480514C4800F0E8FE20207C
:10188000ADF8000014208DF8030003208DF802004D
:101890006946474800F02EFE2021454800F0D7FE5B
:1018A0001020ADF800008DF8030003208DF8020031
:1018B00069463F4800F01EFE10213D4800F0C7FE7B
:1018C00010213B4800F0C5FEC82000F0F6FB1021B7
:1018D000374800F0BCFE0021AE20FFF7D3FB00210B
:1018E0000220FFF7CFFB00211020FFF7CBFB0021E8
:1018F0004020FFF7C7FB0021B020FFF7C3FB00210A
:101900008120FFF7BFFB0021CF20FFF7BBFB0021A9
:10191000A120FFF7B7FB0021A620FFF7B3FB0021B2
:10192000A820FFF7AFFB00213F20FFF7ABFB002112
:10193000AD20FFF7A7FB00218B20FFF7A3FB0021C1
:101940003320FFF79FFB0021C820FFF79BFB0021FE
:10195000D320FFF797FB00210846FFF793FB0021F8
:10196000D520FFF78FFB00218020FFF78BFB0021A4
:10197000D920FFF787FB00211F20FFF783FB002101
:10198000DA20FFF77FFB00211220FFF77BFB00210D
:10199000DB20FFF777FB00214020FFF773FBFFF709
:1019A000FFFB0021AF20FFF76DFB08BD00200140C9
:1019B0000014014010B5FE48006820F07040FC495A
:1019C00008600846006840F0405008600020F9496F
:1019D0000860F949C1F89C01042000F04AFB01208D
:1019E000F4490860F449C1F89C01042000F041FB6F
:1019F00010BD10B50024EE48006820F07040EC499E
:101A000008600846006840F0004008600120E9498D
:101A1000091D086000F02DFB0120E749C1F898017D
:101A200000F027FB07E0601CC4B2FA2C03DDFFF7CF
:101A3000C1FF012010BDDF487C3800680028F2D1CA
:101A4000DC49086000BFF5E770B50446D848006877
:101A500020F07040D64908600846006840F04050C9
:101A600008600020D3490860002517E0E009D1494B
:101A7000091D08606006040E022000F0FAFA012039
:101A8000CD49C1F89801022000F0F3FA0020C949BD
:101A90000860022000F0EDFA681CC5B2082DE5DBF5
:101AA00070BD10B5C248006820F07040C0490860A1
:101AB0000846006840F0405008600120BD49091DFB
:101AC0000860BD49C1F89801042000F0D2FA002056
:101AD000B849091D0860042000F0CBFA0020B6497F
:101AE000C1F8980110BD70B505460C46FFF7D9FF47
:101AF0008020FFF7A9FFFFF77CFF2846FFF7A4FF30
:101B0000FFF777FF2046FFF79FFFFFF772FFFFF712
:101B100051FF70BD10B50020A6490860A4480068B8
:101B200020F07040A24908600846006840F040502C
:101B300008600020A049C1F89C01022000F099FA39
:101B400001209C490860022000F093FA00209A4985
:101B5000C1F8980110BD10B500209649086094485E
:101B6000006820F07040924908600846006840F024
:101B70004050086001209049C1F89C01022000F00B
:101B800078FA01208B490860022000F072FA0020E8
:101B90008949C1F8980110BD70B5054600248448F4
:101BA000006820F07040824908600846006840F0F4
:101BB00000400860002616E000207E4908600220F0
:101BC00000F057FA01207C49C1F898016006040E24
:101BD00078487C38006808B1601CC4B2012000F06D
:101BE00048FA701CC6B2082EE6DB15B9FFF7B3FF42
:101BF00001E0FFF78FFF204670BD70B50446FFF788
:101C000050FF8020FFF720FFFFF7F3FE2046FFF78D
:101C10001BFFFFF7EEFEFFF744FF8120FFF714FFE5
:101C2000FFF7E7FE0020FFF7B7FF0546FFF7C2FE0C
:101C3000284670BD2DE9FC5F8346584604F016FA2D
:101C400080465E4A5E4B03F0E7FF064603F012FD56
:101C5000834600245B4D00225B4B2046294603F05F
:101C6000EFFD04460D46584604F000FA064632469B
:101C70000B462046294603F0E3FD04460D460022AC
:101C8000524B2046294604F007F904460D4600222F
:101C90004F4B2046294603F01FFD064603F07CFC0F
:101CA000804603F025FFC0B201900020FFF7A5FF9A
:101CB00082460AF07F0040F010000090002000995A
:101CC000FFF711FFFE200199FFF70DFF514600209D
:101CD000FFF709FF022000F0F0F94AF0A10100200F
:101CE000FFF701FFBDE8FC9F70B504460D461646A0
:101CF000E9B2A200921DD0B2FFF7F5FEA100C91D06
:101D0000C8B2C5F30721FFF7EEFEF1B2A200083218
:101D1000D0B2FFF7E8FEA1000931C8B2C6F307212F
:101D2000FFF7E1FE70BD08B50121082000F004FFB7
:101D3000C020ADF8000010208DF8030003208DF8BE
:101D4000020069461A4800F0D5FB4FF4407118486C
:101D500000F07DFC08BD2DE9F84F83468A4600203F
:101D60000090FFF7E0FF00210846FFF7BCFE584651
:101D7000FFF760FF504603F0FFFE80464FF033321E
:101D8000144B03F049FF06460022134B03F0A4FC5A
:101D9000044603F0ADFE009000210846009AFFF7CC
:101DA000A3FF00210120009AFFF79EFF002115E00C
:101DB000000C01409881214200802142713D0AD7E8
:101DC000A370ED3F84D777410000B0400000F03FA2
:101DD0000000E03F33330340002062400220009ABD
:101DE000FFF782FF00210320009AFFF77DFF00210B
:101DF0000420009AFFF778FF00210520009AFFF7E2
:101E000073FF00210620009AFFF76EFF1E210720B6
:101E1000009AFFF769FF00210820009AFFF764FF8E
:101E20001E210920009AFFF75FFF00210A20009A77
:101E3000FFF75AFF00210B20009AFFF755FF002102
:101E40000C20009AFFF750FF00210D20009AFFF7A9
:101E50004BFF00210E20009AFFF746FF00210F20C4
:101E6000009AFFF741FF4FF4FA7000F026F9BDE841
:101E7000F88F2DE9F84F8346924600200090504697
:101E800003F07AFE80466A4A6A4B03F0C5FE0646B6
:101E90000022694B03F020FC044603F029FE009069
:101EA00000215846009AFFF71FFFBDE8F88F2DE983
:101EB000FF4F85B00D4614469946DDF848A0002036
:101EC0000490B9F1000F06D0B9F1010F1CD0B9F19F
:101ED000020F18D156E0204603F04EFE544A554BEF
:101EE000CDE9000103F098FE0022534BCDE9020139
:101EF00003F0F2FB074603F0FBFD04900021DDE94F
:101F00000420FFF7F1FE8FE0204603F035FE484A3B
:101F1000484BCDE9000103F07FFE07460022464B07
:101F200003F0DAFBCDE9020103F0E2FD04900021A9
:101F3000DDE90420FFF7D8FEAC4211DD601B03F0A1
:101F400004FE07463A4A3D4B03F066FECDE9020126
:101F500003F0CEFD1FFA80FB584600F0AEF810E00B
:101F6000281B03F0F2FD0746314A344B03F054FEC0
:101F7000CDE9020103F0BCFD1FFA80FB584600F0DA
:101F80009CF851E0AC4226DD2E4621E0304603F0BD
:101F9000F3FD0746264A274B03F03EFE0022264B60
:101FA000CDE9000103F098FBCDE9020103F0A0FDAB
:101FB00004900021DDE90420FFF796FE022000F0E6
:101FC0007CF8FA210AFB01F000F053F8701CC6B24D
:101FD000A642DBDD27E0A54225DD2E4621E0304686
:101FE00003F0CAFD0746124A124B03F015FE002209
:101FF000114BCDE9000103F06FFBCDE9020103F0C5
:1020000077FD04900021DDE90420FFF76DFE02203A
:1020100000F053F8FA210AFB01F000F02AF8701ED4
:10202000C6B2A642DBDA00BF00BF09B0BDE8F08F40
:102030009A9999999999014000C0634099990540EE
:1020400010B56FF0040000F074F92E4800682E49B6
:10205000B0FBF1F02D4908700846007800EB400114
:10206000C1EBC0104FF6FF7101EAC000284908809B
:1020700010BD0146254A12784A434FF0E0235A61C9
:1020800000229A611A46126942F001021A6100BFE9
:102090004FF0E022106900F001021AB100F4803222
:1020A000002AF5D04FF0E022126922F001024FF031
:1020B000E0231A6100229A6170470146144A12888F
:1020C0004A434FF0E0235A6100229A611A4612698E
:1020D00042F001021A6100BF4FF0E022106900F0E7
:1020E00001021AB100F48032002AF5D04FF0E0224C
:1020F000126922F001024FF0E0231A6100229A6176
:10210000704700000000002000127A001800002034
:102110001A00002000BF704700BF4A4A128802F030
:102120004002002AF9D0C2B2464B1B1D1A807047EC
:1021300010B586B00446012144F2040000F0FCFC16
:102140004FF40070ADF8140003208DF8160018202D
:102150008DF8170005A93C4800F0CCF94FF48060D9
:10216000ADF8140004208DF8170005A9364800F0DA
:10217000C1F925208DF8000003208DF801008DF8AD
:10218000020001208DF80300684600F088F80194F1
:102190000020ADF80800ADF80A00ADF80C00ADF86D
:1021A00010000C20ADF80E0001A9264800F06BFDD0
:1021B000012240F22551234800F0FDFD0121214874
:1021C00000F0EDFD06B010BD10B540F225511D48E0
:1021D00000F0D6FE10B31B4800F052FEC4B21B48FC
:1021E000008800F40040C8B91848008800F4804016
:1021F00060B10A2C03D000201449088020E0134865
:10220000008840F400401149088019E00D2C06D1E7
:102210000E48008840F480400C49088010E00B48CC
:102220000088C0F30D000A490C5408480088401C7F
:102230000649088008460088C72801DD002008807C
:1022400010BD0000003801400008014020000020BF
:10225000FA0500200948804709480047FEE7FEE7E5
:10226000FEE7FEE7FEE7FEE7FEE7FEE7FEE7FEE746
:1022700004480549054A064B70470000E708000876
:102280003101000828070020280D0020280900201F
:102290002809002031490143314A1160704770B567
:1022A000002100230F22C47804B32D4C246804F4C9
:1022B000E064C4F5E064210AC1F10403CA40447833
:1022C00004FA03F18478144021430901254C06786F
:1022D000A155047804F01F050124AC4005786D1168
:1022E000AD0005F1E025C5F8004109E0047804F0EF
:1022F0001F050124AC401C4D0678761145F8264098
:1023000070BD1A4A0A400243154B1B1F1A607047E2
:1023100039B1134A121D12680243114B1B1D1A607A
:1023200006E00F4A121D126882430D4B1B1D1A60F6
:102330007047042808D14FF0E021096941F00401F9
:102340004FF0E022116107E04FF0E021096921F030
:1023500004014FF0E0221161704700000000FA050F
:102360000CED00E000E400E080E100E080FFFF1FF2
:1023700010B5012000F014FC002000F011FC10BD8D
:102380002A49086070472949091F08607047274992
:1023900084310860704701460020254A10884FF6B6
:1023A0007F4210400843224A1080704701460020B7
:1023B0001F4A10884FF68072104008431C4A108054
:1023C000704708B500220092194A2C3A0092009AF0
:1023D00002440092009A116008BD08B50146002031
:1023E000009013482C380090009808440090009802
:1023F000008808BD0D489C300068C0B270470C488A
:102400000830008840F00100094908310880704711
:102410000648A0300068C0B2704705480830008800
:1024200040F00200024908310880704704860D42DE
:102430002C6C004010B50446CC48844208D10121E0
:10244000042000F093FB0021042000F08FFB46E005
:10245000C748844208D10121082000F087FB0021F1
:10246000082000F083FB3AE0C248844208D10121F1
:10247000102000F07BFB0021102000F077FB2EE005
:10248000BD48844208D10121202000F06FFB0021CB
:10249000202000F06BFB22E0B848844208D10121E3
:1024A000402000F063FB0021402000F05FFB16E0BD
:1024B000B348844208D10121802000F057FB00215D
:1024C000802000F053FB0AE0AE48844207D101218E
:1024D000801500F04BFB0021A01500F047FB10BD5C
:1024E00010B50121084600F041FB0021012000F059
:1024F0003DFB10BD2DE9F0410246002500260020DD
:1025000000230024002791F803C00CF00F0591F878
:1025100003C00CF0100CBCF1000F03D091F802C006
:102520004CEA050591F800C0BCF1000F31D01468E9
:1025300000202BE04FF0010C0CFA00F3B1F800C0C2
:102540000CEA03069E4220D183004FF00F0C0CFAD8
:1025500003F7BC4305FA03FC4CEA040491F803C0FA
:10256000BCF1280F06D14FF0010C0CFA00FCC2F8A8
:1025700014C00AE091F803C0BCF1480F05D14FF038
:10258000010C0CFA00FCC2F810C0401C0828D1D382
:102590001460B1F800C0BCF1FF0F34DD54680020B6
:1025A0002EE000F1080C4FF0010808FA0CF3B1F826
:1025B00000C00CEA03069E4221D183004FF00F0CAD
:1025C0000CFA03F7BC4305FA03FC4CEA040491F847
:1025D00003C0BCF1280F05D100F1080C08FA0CF873
:1025E000C2F8148091F803C0BCF1480F07D100F184
:1025F000080C4FF0010808FA0CF8C2F81080401CD3
:102600000828CED35460BDE8F0814FF6FF710180F9
:10261000022181700421C170704702460020936836
:102620000B400BB1012000E0002070470146886894
:1026300080B2704702460020D3680B400BB10120E6
:1026400000E0002070470146C86880B27047016111
:102650007047416170470AB1016100E04161704714
:10266000C16070474FF480320A43826181618261A8
:1026700082698269704702460020434B18684FF612
:102680008073184040EA021008433F4B18607047BF
:102690003E49C8617047F0B50A4600230024002176
:1026A000002500F00046B6F1004F02D1364EF16928
:1026B00001E0354E7168C0F3034583B200F4401663
:1026C000B6F5401F08D121F070612F4E766826F0D4
:1026D00070662D4F7E6012E000F48016B6F5801F04
:1026E00006D1032606FA05F4A14341F0706106E025
:1026F000460D360103FA06F6B14341F0706122B18E
:10270000460D360103FA06F6314300F00046B6F1F5
:10271000004F02D11C4EF16101E01B4E7160F0BD13
:1027200030B500228B071C0F0F2303FA04F2164B5F
:1027300008338C1053F824309343134C08348D1015
:1027400044F8253023468C1053F824308C07240F8E
:1027500000FA04F423430C4C08348D1044F825305F
:1027600030BD0A49DC3108607047000000080140B4
:10277000000C01400010014000140140001801400D
:10278000001C0140002001400000014000002042E8
:1027900010B50121080700F0F6F900214FF0805034
:1027A00000F0F1F910BD2A49086270472849086114
:1027B000704701460020274A106820F0E0000843D7
:1027C000106070472249A0310860704710B502467A
:1027D0000020204B186820F00300104318601E4BA7
:1027E0001B6843F004031C4C2360012901D130BF56
:1027F00000E020BF184B1B6823F00403164C236035
:1028000010BD1448006840F00400124908600846F2
:10281000006840F0020008600F48006840F00400C3
:102820000D49086000BF00BF30BF7047014600205F
:10283000084A52680A400AB1012000E000207047AF
:102840000449096841EA8001024A116070470000AA
:1028500000000E420070004010ED00E0DF4800680C
:1028600040F00100DD49086008464068DC49084046
:10287000DA49486008460068DA490840D7490860E4
:102880000846006820F4802008600846406820F46C
:10289000FE0048604FF41F0088607047CF49096808
:1028A00021F48031CD4A11601146096821F480215C
:1028B0001160B0F5803F03D0B0F5802F0ED106E057
:1028C000C649096841F48031C44A116007E0C34930
:1028D000096841F4A021C14A116000E000BF00BFB7
:1028E000704710B501460022002300204A11012A3A
:1028F00002D1BA4C236806E0022A02D1B74C236AFF
:1029000001E0B64C636A01F01F02012494401C40B0
:102910000CB1012000E0002010BD38B5002000906F
:102920000024002500BF3120FFF7DBFF054600989B
:10293000401C00900098B0F5A06F01D0002DF2D09F
:102940003120FFF7CEFF08B1012400E0002420462B
:1029500038BD01460020A14A106820F0F80040EA86
:10296000C10010607047A04908607047024600200F
:102970009A4B586820F47C1042EA01031843974BA5
:102980005860704798490866704701460020934A8E
:10299000506820F003000843506070478F4840683B
:1029A00000F00C007047014600208C4A506820F06F
:1029B000F00008435060704701460020874A506885
:1029C00020F4E06008435060704701460020834ACD
:1029D000506820F4605040EAC1005060704729B14F
:1029E0007E4A527A02437D4B5A7204E07B4A527A05
:1029F00082437A4B5A7270477B49D83108607047DE
:102A000001460020754A506820F440400843506059
:102A100070470021714A20321170704A82F82010EC
:102A2000012802D004280AD104E001216B4A203297
:102A3000117005E00521694A2032117000E000BFE5
:102A400000BF70476949086070476449096A0143DB
:102A5000624A11627047654944390860704730B571
:102A600000210022002400235C4D6D6805F00C015C
:102A700021B1042905D0082923D105E05C4D05606A
:102A800022E05B4D05601FE0544D6D6805F4701247
:102A9000524D6D6805F48034022505EB92421CB955
:102AA000544D554305600BE04C4D6D6805F4003501
:102AB0001DB1504D5543056002E04D4D5543056035
:102AC00002E04B4D056000BF00BF444D6D6805F04E
:102AD000F0010909484D6B5C0568DD4045603F4DDC
:102AE0006D6805F4E061090A434D6B5C4568DD40A3
:102AF00085603A4D6D6805F46051C90A3E4D6B5CC6
:102B00004568DD40C560354D6D6805F44041890B71
:102B10003A4D6B5CC568B5FBF3F5056130BD29B175
:102B20002E4A526902432D4B5A6104E02B4A5269E6
:102B300082432A4B5A61704729B1284A926902435D
:102B4000264B9A6104E0254A92698243234B9A619D
:102B5000704729B1214AD2690243204BDA6104E06F
:102B60001E4AD26982431D4BDA61704729B11B4A64
:102B7000D2680243194BDA6004E0184AD2688243F3
:102B8000164BDA60704729B1144A12690243134B9D
:102B90001A6104E0114A12698243104B1A617047AE
:102BA00012494039086070470F49C86470470B49A3
:102BB000C87170470948406A40F080700749486210
:102BC000704701460020054A92680A400AB1012078
:102BD00000E00020704701498872704700100240F1
:102BE0000000FFF8FFFFF6FE000042428004424270
:102BF00000127A0000093D0022000020320000206F
:102C000010B50446FB48844209D101218803FFF72F
:102C1000ADFF00214FF48040FFF7A8FF32E0F648F7
:102C2000844209D101214804FFF7ADFF00214FF490
:102C30000030FFF7A8FF25E0F048844209D10121C8
:102C40008804FFF7A0FF00214FF48020FFF79BFFCF
:102C500018E0EB48844209D10121C804FFF793FF33
:102C600000214FF40020FFF78EFF0BE0E54884427F
:102C700008D101210805FFF786FF00214FF48010DD
:102C8000FFF781FF10BD2DE9F04786B005460E46DF
:102C90000024A24600BFA1460027B08900B100BFB2
:102CA0002F462C8A4CF6FF700440F08804432C8297
:102CB000AC894EF6F3100440B0883189084371891D
:102CC00008430443AC81AC8A4FF6FF400440B0890E
:102CD0000443AC8201A8FFF7C2FEC648874202D176
:102CE000DDF810A001E0DDF80CA0A88900F4004098
:102CF00040B10AEBCA0000EB0A1031684900B0FB92
:102D0000F1F807E00AEBCA0000EB0A10316889000D
:102D1000B0FBF1F86420B8FBF0F004012009642155
:102D200001FB1089A88900F4004040B1322000EB7B
:102D3000C900B0FBF1F000F00700044308E03220C6
:102D400000EB09106421B0FBF1F000F00F00044328
:102D50002C8106B0BDE8F0874FF4165101600021C8
:102D60008180C18001810C214181002181817047D6
:102D700010B502460020108A4FF2FF0318400B885E
:102D80004C8823438C882343CC88234318431082E8
:102D900010BD0021018041808180C180704721B138
:102DA000828942F40052828104E082894DF6FF73E9
:102DB0001A4082817047F0B50346002400260025A2
:102DC000002040F66A17B94200D100BF1846C1F38F
:102DD000421401F01F06012707FA06F5012C01D164
:102DE0000C3004E0022C01D1103000E014301AB194
:102DF00007682F43076002E00768AF430760F0BD34
:102E00001AB1838A0B43838202E0838A8B438382D5
:102E10007047028A4FF6F0731A400282028A0A4310
:102E20000282704782894FF2FF731A408281828941
:102E30000A438281704721B1828942F00202828175
:102E400004E082894FF6FD731A4082817047028A3E
:102E50004FF6DF731A400282028A0A4302827047E9
:102E600021B1028A42F48042028204E0028A4BF6D7
:102E7000FF731A4002827047C1F3080282807047D4
:102E800001468888C0F308007047818941F001013C
:102E900081817047028BD2B20283028B42EA012207
:102EA00002837047028B02F47F420283028B0A4343
:102EB0000283704721B1828A42F02002828204E0BC
:102EC000828A4FF6DF731A408282704721B1828A6C
:102ED00042F01002828204E0828A4FF6EF731A40B9
:102EE0008282704721B1828A42F00802828204E025
:102EF000828A4FF6F7731A408282704721B1828925
:102F000042F40042828103E08289C2F30E02828190
:102F1000704721B1828A42F40062828204E0828A90
:102F20004FF2FF731A4082827047828A4FF6FB731A
:102F30001A408282828A0A438282704721B1828A41
:102F400042F00202828204E0828A4FF6FD731A4048
:102F50008282704702460020B1F5007F00D100BF99
:102F600013880B400BB1012000E00020704701F4F2
:102F70000072B2F5007F00D100BFCA4302807047E3
:102F800070B50246002400230025002040F66A1692
:102F9000B14200D100BFC1F3421501F01F03012669
:102FA00006FA03F3012D02D19689334006E0022D83
:102FB00002D1168A334001E0968A33400C12012672
:102FC00006FA04F41688344013B10CB1012000E075
:102FD000002070BD10B50022002340F66A14A14203
:102FE00000D100BF0A1201249440A3B2DC43048044
:102FF00010BD00000038014000440040004800407F
:10300000004C00400050004029B1504A1288024351
:103010004E4B1A8004E04D4A128882434B4B1A8073
:1030200070474A48001D008840F010004749091DBC
:10303000088070474548001D00884FF6EF71084032
:103040004249091D08807047002140481C30018812
:10305000001F008841EA0040704700B50246FFF7B4
:10306000E0FF100C394918310880091D0A80FFF76C
:10307000E1FF00BD00B50246FFF7D3FFC2F30340F6
:10308000324908310880091D0A80FFF7D3FF00BDCF
:1030900000B50246FFF7C5FF100C2C49203108800F
:1030A000091D0A80FFF7C6FF00BD00202749103127
:1030B00009880907080B2549143109880843704716
:1030C00000BF2248001D008800F020000028F8D032
:1030D00070471E48001D00884FF6F77108401B49D5
:1030E000091D088000BF1948001D008800F0080075
:1030F0000028F8D0704701460020144A121D12889B
:103100000A400AB1012000E0002070470F49091D64
:10311000098881430D4A121D118070470146002025
:103120000A4A121D12880A40D0B2084A12880A4080
:1031300012B108B1012000E0002070470349091DC9
:1031400009888143014A121D118070470028004000
:1031500010B50446FE48844208D10121C014FFF78F
:1031600005FD0021E014FFF701FDC4E0B4F1804F3C
:1031700008D101210846FFF706FD00210120FFF7D5
:1031800002FDB8E0F348844208D101210220FFF794
:10319000FAFC00210220FFF7F6FCACE0EE48844286
:1031A00008D101210420FFF7EEFC00210420FFF7E5
:1031B000EAFCA0E0E948844208D101210820FFF799
:1031C000E2FC00210820FFF7DEFC94E0E4488442A2
:1031D00008D101211020FFF7D6FC00211020FFF7B5
:1031E000D2FC88E0DF48844208D101212020FFF78B
:1031F000CAFC00212020FFF7C6FC7CE0DA488442AC
:1032000008D101214014FFF7B1FC00216014FFF741
:10321000ADFC70E0D548844209D10121C804FFF714
:10322000A5FC00214FF40020FFF7A0FC63E0D0488C
:10323000844209D101210805FFF798FC00214FF4D1
:103240008010FFF793FC56E0CA48844209D101215F
:103250004805FFF78BFC00214FF40010FFF786FCB8
:1032600049E0C548844208D101214020FFF78BFC8A
:1032700000214020FFF787FC3DE0C048844208D190
:1032800001218020FFF77FFC00218020FFF77BFCDD
:1032900031E0BB48844208D101218015FFF773FC5F
:1032A0000021A015FFF76FFC25E0B648844209D144
:1032B00001210804FFF75AFC00214FF48030FFF78A
:1032C00055FC18E0B048844209D101214804FFF7B9
:1032D0004DFC00214FF40030FFF748FC0BE0AB48F9
:1032E000844208D101218804FFF740FC00214FF4FB
:1032F0008020FFF73BFC10BD00220288944B9842CF
:103300000ED0994B98420BD0B0F1804F08D0914B22
:10331000984205D0904B984202D0904B984204D1ED
:103320004FF68F731A404B881A438D4B984207D043
:103330008C4B984204D04FF6FF431A40CB881A4377
:1033400002808B8883850B880385814B98420BD044
:10335000854B984208D08B4B984205D08A4B9842B7
:1033600002D08A4B984201D10B7A038601238382D3
:10337000704770B5002400220023058C4FF6FE76BE
:1033800035400584028C8388048B4FF68F752C4062
:10339000B51E2C400D882C43751E2A400D892A43EA
:1033A0004D882A436A4DA8420BD06F4DA84208D0E1
:1033B000744DA84205D0744DA84202D0734DA84266
:1033C00013D14FF6F7752A404D892A434FF6FB7506
:1033D0002A408D882A434FF6FF652B404FF6FF5554
:1033E0002B408D892B43CD892B4383800483CD884B
:1033F0008586028470BD70B5002400220023058CF0
:103400004FF6EF7635400584028C8388048B48F6AE
:10341000FF752C404FF6FF452C400D884FF6FF7688
:1034200006EA05252C434FF6DF752A400D8906EA8A
:1034300005152A434D8806EA05152A43444DA8423E
:1034400002D0494DA8421DD14FF67F752A404D89C3
:103450004FF6FF7606EA05152A434FF6BF752A4058
:103460008D8806EA05152A434FF6FF352B404FF2AB
:10347000FF752B408D8906EA85052B43CD8906EA29
:1034800085052B4383800483CD880587028470BD26
:1034900070B5002400220023058C4FF6FF663540EE
:1034A0000584028C8388848B4FF68F752C404FF6F1
:1034B000FC752C400D882C434FF6FF552A400D8992
:1034C0004FF6FF7606EA05252A434D8806EA0525CC
:1034D0002A431F4DA84202D0234DA8421DD14FF2CE
:1034E000FF752A404D894FF6FF7606EA05252A43E7
:1034F0004FF6FF352A408D8806EA05252A434EF609
:10350000FF752B404DF6FF752B408D8906EA05159A
:103510002B43CD8906EA05152B4383808483CD8810
:103520008587028470BD70B5002200230024058CBD
:103530004EF6FF7635400584038C8488828B48F6EE
:10354000FF752A404FF6FF452A400D8820E0000015
:10355000002C01400004004000080040000C004026
:10356000001000400014004000340140004C0140B5
:10357000005001400054014000180040001C004071
:10358000002000400040014000440140004801404C
:103590004FF6FF7606EA05252A434DF6FF752B40C8
:1035A0000D8906EA05352B434D8806EA05352B4380
:1035B000FA4DA84202D0FA4DA84208D14BF6FF7549
:1035C0002C408D894FF6FF7606EA85152C438480C2
:1035D0008283CD88A0F84050038470BD828B4FF267
:1035E000FF331A408283828B4FF6FF7303EA012375
:1035F0001A4382837047F0B50C461546002200211D
:103600000026078C4EF6FF7C07EA0C070784828BA6
:10361000018C4FF6FF7707EA043640F6FF473A4041
:103620004FF6FF7707EA05273A434FF6FF7707EA99
:1036300003373A43D94FB8420ED0D94FB8420BD0D6
:10364000B0F1804F08D0D74FB84205D0D64FB8421E
:1036500002D0D64FB84206D14DF6FF77394046F436
:103660008057394305E047F6FF57394044F4805707
:10367000394382830184F0BD828B4FF6F3731A4085
:103680008283828B0A4382837047F0B50C461546CD
:10369000002200210026078C4FF6FF6C07EA0C077A
:1036A0000784828B018C4FF6FF7707EA04264FF6DA
:1036B0000C773A404FF6FF7707EA03172F433A4358
:1036C000B64FB8420ED0B64FB8420BD0B0F1804FD3
:1036D00008D0B44FB84205D0B34FB84202D0B34F70
:1036E000B84206D14FF6FF57394046F48077394348
:1036F00005E04FF2FF57394044F480773943828325
:103700000184F0BD028B4FF2FF331A400283028B1B
:103710004FF6FF7303EA01231A4302837047F0B5A3
:103720000C461546002200210026078C4FF6EF7C40
:1037300007EA0C070784028B018C4FF6FF7707EA34
:10374000041640F6FF473A404FF6FF7707EA033783
:103750003A434FF6FF7707EA05273A438F4FB842BF
:103760000ED08F4FB8420BD0B0F1804F08D08D4FA4
:10377000B84205D08C4FB84202D08C4FB84206D127
:103780004FF6DF77394046F01007394305E04FF632
:103790005F77394044F01007394302830184F0BD5C
:1037A000028B4FF6F3731A400283028B0A430283A3
:1037B0007047F0B50C46154600220021068C4FF6E6
:1037C000FE773E400684028B018C4FF60C76324029
:1037D0007E1C06EA03162E433243704EB0420ED0D2
:1037E0006F4EB0420BD0B0F1804F08D06D4EB0425A
:1037F00005D06D4EB04202D06C4EB04206D14FF6AD
:10380000FD76314044F00106314305E04FF6F57690
:10381000314044F00106314302830184F0BD70B5AC
:1038200005460C465D4885420ED05D4885420BD06A
:10383000B5F1804F08D05B48854205D05A48854293
:1038400002D05A48854200D100E000BF208850B91C
:103850002389A28861882846FFF7ABFFE1882846C4
:10386000FFF79EFF25E0208804280AD12389A2883B
:1038700061882846FFF753FFE1882846FFF742FF9B
:1038800017E0208808280AD12389A2886188284661
:10389000FFF7FBFEE1882846FFF7EEFE09E02389EB
:1038A000A28861882846FFF7A6FEE1882846FFF730
:1038B00095FE70BD2DE9F04105460C460026012716
:1038C000608808B9022600E00026A088012801D1FE
:1038D000022700E001272088A0B92389A2886188F7
:1038E0002846FFF766FFE1882846FFF759FF23893E
:1038F0003A4631462846FFF712FFE1882846FFF78F
:1039000001FF13E02389A28861882846FFF707FF9B
:10391000E1882846FFF7F6FE23893A4631462846D5
:10392000FFF747FFE1882846FFF73AFFBDE8F0813F
:103930000A884B881A438B881A43CB881A430B8911
:103940001A434B891A438B891A43A0F844207047C5
:103950004FF6FF71818000210180C180418001729A
:1039600070470021018041808180C18001814181B7
:103970008181C181704700210180418001218180C6
:103980000021C18001817047002101804180818038
:10399000C18001814181818170470000002C01407C
:1039A000003401400004004000080040000C0040CA
:1039B00021B1028842F00102028004E002884FF641
:1039C000FE731A400280704731B1B0F8442042F4CF
:1039D0000042A0F8442005E0B0F84420C2F30E02F3
:1039E000A0F8442070471AB183890B43838102E019
:1039F00083898B43838170478182704741EA020348
:103A0000A0F8483070471AB183890B43838102E0E4
:103A100083898B438381704701894FF6F872114087
:103A2000018170470A46002101894FF68F731940C2
:103A300011430181704730B504460D4629462046A2
:103A4000FFF7F0FF208940F00700208130BD2DE90D
:103A5000F04104460D4616461F46602D06D13B46F2
:103A6000012231462046FFF75AFE05E03B4601227F
:103A700031462046FFF79DFE29462046FFF7D2FF3C
:103A8000208940F007002081BDE8F08130B50C4668
:103A900000210189C9B24FF6FF7505EA03251543D8
:103AA00025432943018130BD2DE9F04105460E46ED
:103AB00017469846002443463A4631462846FFF7C3
:103AC000E5FF2C894FF6F870044044F007044FF6E8
:103AD0008F70044044F070042C81BDE8F081F0B593
:103AE00004460D4616461F463B46324629462046AA
:103AF000FFF7CCFF208940F480402081F0BD018594
:103B0000828270470A46002101884FF68F73194060
:103B1000114301807047F0B50C4615461E46002142
:103B2000002200230189028B038C4FF6F87739407D
:103B300021434FF6FC473A4040F201173A434FF613
:103B4000DD773B404FF6FF7707EA06172F433B43ED
:103B5000018102830384F0BD0A460021018B4FF6E8
:103B60008F7319401143018370470A460021018B6E
:103B700048F6FF7319404FF6FF7303EA0223194317
:103B8000018370470A460021818B4FF68F731940DD
:103B90001143818370470A460021818B48F6FF73E9
:103BA00019404FF6FF7303EA0223194381837047DC
:103BB00021B1028842F08002028004E002884FF6C0
:103BC0007F731A400280704721B1828842F004025C
:103BD000828004E082884FF6FB731A40828070472F
:103BE00021B1828842F00802828004E082884FF688
:103BF000F7731A408280704721B1828842F0010237
:103C0000828004E082884FF6FE731A4082807047FB
:103C10000A460021018B4FF6F773194011430183C7
:103C200070470A460021018B4FF2FF7319404FF68F
:103C3000FF7303EA02231943018370470A460021F8
:103C4000818B4FF6F77319401143818370470A4601
:103C50000021818B4FF2FF7319404FF6FF7303EA87
:103C600002231943818370470A460021018B4FF6D6
:103C7000FB7319401143018370470A460021018BF1
:103C80004FF6FF3319404FF6FF7303EA022319433F
:103C9000018370470A460021818B4FF6FB73194060
:103CA0001143818370470A460021818B4FF6FF3311
:103CB00019404FF6FF7303EA0223194381837047CB
:103CC0000A460021018B4FF67F731940114301838F
:103CD00070470A460021018BC1F30E014FF6FF73B6
:103CE00003EA02231943018370470A460021818BAE
:103CF0004FF67F7319401143818370470A460021B4
:103D0000818BC1F30E014FF6FF7303EA02231943BF
:103D1000818370470A460021018C4FF6FD731940DC
:103D20001143018470470A460021018C4FF6F77356
:103D300019401143018470470A460021018C4FF657
:103D4000DF7319404FF6FF7303EA0213194301842E
:103D500070470A460021018C4FF67F7319404FF6D9
:103D6000FF7303EA02131943018470470A460021D6
:103D7000018C4FF6FF5319404FF6FF7303EA0223FD
:103D80001943018470470A460021018C4FF2FF73EA
:103D900019404FF6FF7303EA022319430184704769
:103DA0000A460021018C4DF6FF7319404FF6FF7350
:103DB00003EA023319430184704730B5002301241C
:103DC0008C40A3B2048C9C430484048C02FA01F559
:103DD000ADB22C43048430BD30B5002304248C40A4
:103DE000A3B2048C9C430484048C02FA01F5ADB2A6
:103DF0002C43048430BD70B50346002000241846CF
:103E0000183001258D40ACB21D8CA5431D8409B12D
:103E1000082909D100EB6100056825F070050560EF
:103E20000568154305600EE00D1FC5F34E052844D7
:103E3000056825F4E045056005684FF6FF7606EA5B
:103E400002263543056070BD21B1028842F00202AE
:103E5000028004E002884FF6FD731A40028070472A
:103E600021B1028842F00402028004E002884FF689
:103E7000FB731A400280704721B1828842F08002B1
:103E8000828004E082884FF67F731A4082807047F8
:103E900002884FF6F7731A40028002880A430280B4
:103EA000704782884FF68F731A40828082880A4357
:103EB0008280704702894FF6F8731A4002810289A6
:103EC0000A430281704702894FF67F731A400281CC
:103ED00002890A4302817047818470478185704757
:103EE000818670470187704781877047A0F840102E
:103EF000704702884FF6FF431A40028002880A4347
:103F0000028070470146888E70470146088F7047CF
:103F10000146888F70470146B1F84000704701465E
:103F2000888C70470146088D704702460020138A2E
:103F30000B400BB1012000E000207047CA43028211
:103F4000704730B50246002000230024158A05EA98
:103F50000103958905EA010413B10CB1012000E0C9
:103F6000002030BDCA4302827047000010B58CB0FB
:103F700004461E230BAA03A9204600F0ABFE0090C6
:103F8000009810B101200CB010BD9DF82C00044425
:103F900000200B900EE040489DF82C2050F8221095
:103FA00003A800F0FFFD00B908E09DF82C00401CBC
:103FB000C0B20B909DF82C000728ECD300BF9DF8F1
:103FC0002C00072863D2DFE800F004053C5E65643E
:103FD000630000BF31A001F07BF831A001F078F858
:103FE0003FA001F075F84EA001F072F85CA001F05E
:103FF0006FF86BA001F06CF879A001F069F886A069
:1040000001F066F88BA001F063F890A001F060F871
:1040100094A001F05DF899A001F05AF89EA001F07B
:1040200057F8A4A001F054F8B0A001F051F8BDA0D9
:1040300001F04EF8C8A001F04BF8D4A001F048F808
:104040009AE216A001F044F8E0A001F041F8002047
:104050000B900EE0ED4800689DF82C2000EBC200AC
:104060004168EBA001F034F89DF82C00401CC0B270
:104070000B90E648007D9DF82C108842EADC07A0F2
:1040800001F026F878E205A001F022F8C4E171E21F
:1040900045E219E2ECE10000380000200D0A0000C2
:1040A0002D2D2D2D2D2D2D2D2D2D2D2D2D2D2D2D40
:1040B0002D2D2D2D2D2D2D2D55534D415254205646
:1040C000332E312D2D2D2D2D2D2D2D2D2D2D2D2D15
:1040D0002D2D2D2D2D2D2D2D2D2D2D200D0A0000BA
:1040E0002020202055534D415254CAC7D3C9414CBA
:1040F00049454E54454BBFAAB7A2B5C4D2BBB8F68A
:10410000C1E9C7C9B5C4B4AEBFDAB5F7CAD4BBA557
:10411000BDBBD7E9BCFE2CCDA8B9FD200D0A00001F
:10412000CBFC2CC4E3BFC9D2D4CDA8B9FDB4AEBF7B
:10413000DAD6FACAD6B5F7D3C3B3CCD0F2C0EFC340
:10414000E6B5C4C8CEBACEBAAFCAFD2CB2A2D6B4B8
:10415000D0D02ED2F2B4CB2CC4E3BFC90D0A0000DC
:10416000D2D4CBE6D2E2B8FCB8C4BAAFCAFDB5C46B
:10417000CAE4C8EBB2CECAFD28D6A7B3D6CAFDD7CB
:10418000D62831302F3136BDF8D6C629A1A2D7D6D0
:10419000B7FBB4AEA1A2BAAFCAFDC8EB0D0A0000CE
:1041A000BFDAB5D8D6B7B5C8D7F7CEAAB2CECAFD52
:1041B000292CB5A5B8F6BAAFCAFDD7EEB6E0D6A79A
:1041C000B3D63130B8F6CAE4C8EBB2CECAFD2CB2D1
:1041D000A2D6A7B3D6BAAFCAFDB7B5200D0A000064
:1041E000BBD8D6B5CFD4CABE2ED0C2D4F6B2CECAB2
:1041F000FDCFD4CABEBDF8D6C6C9E8D6C3B9A6C4D9
:10420000DC2CD0C2D4F6BDF8D6C6D7AABBBBB9A6A3
:10421000C4DC2E0D0A000000BCBCCAF5D6A7B3D67C
:104220003A7777772E6F70656E6564762E636F6D63
:104230000D0A000055534D415254D3D037B8F6CF34
:10424000B5CDB3C3FCC1EE3A0D0A00003F3A2020C1
:1042500020202020BBF1C8A1B0EFD6FAD0C5CFA254
:104260000D0A000068656C703A202020BBF1C8A1DF
:10427000B0EFD6FAD0C5CFA20D0A00006C697374F6
:104280003A202020BFC9D3C3B5C4BAAFCAFDC1D03C
:10429000B1ED0D0A0A00000069643A2020202020B8
:1042A000BFC9D3C3BAAFCAFDB5C44944C1D0B1ED8B
:1042B0000D0A0A006865783A20202020B2CECAFD97
:1042C0003136BDF8D6C6CFD4CABE2CBAF3B8FABFC1
:1042D000D5B8F12BCAFDD7D6BCB4D6B4D0D0BDF872
:1042E000D6C6D7AABBBB0D0A0A0000006465633AB4
:1042F00020202020B2CECAFD3130BDF8D6C6CFD4A2
:10430000CABE2CBAF3B8FABFD5B8F12BCAFDD7D6BE
:10431000BCB4D6B4D0D0BDF8D6C6D7AABBBB0D0AA4
:104320000A00000072756E74696D653A312CBFAA7F
:10433000C6F4BAAFCAFDD4CBD0D0BCC6CAB13B30EC
:104340002CB9D8B1D5BAAFCAFDD4CBD0D0BCC6CA6F
:10435000B13B0D0A0A000000C7EBB0B4D5D5B3CC11
:10436000D0F2B1E0D0B4B8F1CABDCAE4C8EBBAAF7C
:10437000CAFDC3FBBCB0B2CECAFDB2A2D2D4BBD878
:10438000B3B5BCFCBDE1CAF82E0D0A002D2D2D2DB4
:104390002D2D2D2D2D2D2D2D2D2D2D2D2D2D2D2D4D
:1043A0002D2D2D2D2D2D414C49454E54454B2D2D58
:1043B0002D2D2D2D2D2D2D2D2D2D2D2D2D2D2D2D2D
:1043C0002D2D2D2D2D2D2D200D0A00002D2D2D2DC7
:1043D0002D2D2D2D2D2D2D2D2D2D2D2D2D2D2D2D0D
:1043E0002D2D2D2D2DBAAFCAFDC7E5B5A52D2D2D2F
:1043F0002D2D2D2D2D2D2D2D2D2D2D2D2D2D2D2DED
:104400002D2D2D2D2D2D2D2D200D0A007C00002071
:1044100025730D0A00000000EFA000F059FE0020F7
:104420000B901AE0FC4909689DF82C2001EBC201B1
:1044300001AB02AA486803A900F072FCF6480068C4
:104440009DF82C1050F8312003A9F4A000F040FE94
:104450009DF82C00401CC0B20B90EF48007D9DF8E9
:104460002C108842DEDCAFF2CC3000F031FE83E06D
:10447000AFF2D83000F02CFE0BAA03A9204600F0C2
:104480002BFD9DF82C00C8B9694603A800F0BDFBC0
:104490000B909DF82C0020B9E5A0009900F018FEC3
:1044A0000EE09DF82C00042801D002206BE5E3A06B
:1044B00000F00EFE0120D849C87501E0022062E537
:1044C000DDA000F005FE57E0DBA000F001FE0BAA26
:1044D00003A9204600F000FD9DF82C00C8B96946EC
:1044E00003A800F092FB0B909DF82C0020B9D8A0F7
:1044F000009900F0EDFD0EE09DF82C00042801D09D
:10450000022040E5D5A000F0E3FD0020C249C875B7
:1045100001E0022037E5C8A000F0DAFD2CE0C6A0DB
:1045200000F0D6FD0BAA03A9204600F0D5FC9DF8AB
:104530002C00C8B9694603A800F067FB0B909DF8F2
:104540002C0078B9B449009881F8EC00084690F83E
:10455000EC0018B1C6A000F0BBFD07E0CBA000F056
:10456000B7FD03E002200EE502200CE5B2A000F04A
:10457000AFFD01E0012006E500BF002003E510B516
:104580000121C948FFF7DAFC4FF6FF71C648FFF773
:10459000A5FC0021C448FFF79FFC00209E49C1F8FC
:1045A000F00010BD10B50121BF48FFF7BEFC012887
:1045B00008D19948D0F8F0004FF6FF7108449649A9
:1045C000C1F8F000B848FFF7AAFC9349D1F8F01001
:1045D00008449149C1F8F0000846D0F8F00010BD39
:1045E00010B50121B048FFF7ACFC01280AD18A4977
:1045F000086980470021AC48FFF76EFC6421AA4897
:10460000FFF76CFC0121A848FFF7ACFC10BD7FB59B
:1046100005460C4601210420FEF79BFAADF8085030
:10462000ADF804400020ADF80A00ADF8060001A97D
:104630009D48FEF761FE012241219B48FFF7D3F917
:104640001E208DF8000003208DF801008DF8020077
:1046500001208DF803006846FDF721FE01219248F4
:10466000FFF7A6F97FBD10B5044604EBC40000EBCC
:1046700004100122C2EB800081B24FF47A70FFF780
:10468000C6FF01206449C87510BD30B595B0054618
:1046900013AB12AA09A9284600F042FB044614B144
:1046A000204615B030BD0020149026E05A49096814
:1046B0009DF8502001EBC20113AB11AA486801A973
:1046C00000F02EFB04460CB12046EAE709A901A838
:1046D00000F068FA60B99DF844009DF848108842DF
:1046E00001DD0220DDE79DF850004B4988750AE0A6
:1046F0009DF85000401CC0B214904748007D9DF8C2
:1047000050108842D2DC00BF4348007D9DF8501015
:10471000884201D10420C4E714A9284600F04DFCCA
:1047200004460CB12046BCE79DF850003A49487554
:104730000020B6E72DE9F0419AB03748847D007D2E
:10474000A04202DC1AB0BDE8F0813349096801EBF0
:10475000C40106AB07AA486808A900F0E1FA08A955
:1047600052A000F0B5FC0026BAE02B48008B0121D6
:10477000B1400840D8B122214EA000F0A9FC30463B
:1047800000F00EFC24492431471839464AA000F0B5
:104790009FFC222147A000F09BFC304600F000FC6B
:1047A0001D492431084410A941F826008EE0304606
:1047B00000F0F6FB18492431085810A941F82600EA
:1047C0001548C07D30B910A850F826103BA000F065
:1047D0007FFC7BE074E000002D2D2D2D2D2D2D2D47
:1047E0002D2D2D2D2D2D2D2D2D2D2D2D2D2D2D2DF9
:1047F0002DBAAFCAFD204944202D2D2D2D2D2D2D54
:104800002D2D2D2D2D2D2D2D2D2D2D2D2D2D2D2DD8
:104810002D2D2D2D200D0A007C00002025732069F0
:10482000642069733A0D0A3058253038580D0A0053
:104830004845583A305825580D0A00003136BDF821
:10484000D6C6B2CECAFDCFD4CABE210D0A00000022
:104850004445433A256C750D0A0000003130BDF81F
:10486000D6C6B2CECAFDCFD4CABE210D0A00000002
:1048700052756E2054696D652043616C63756C617F
:1048800074696F6E204F4E0D0A00000052756E2045
:1048900054696D652043616C63756C6174696F6EFA
:1048A000204F46460D0A0000000800400D0A2573FF
:1048B000280000002563000025730000256C7500AA
:1048C00010A850F8261095A000F002FC9DF81C00DE
:1048D000401EB04202D093A000F0FAFB701CC6B29A
:1048E0009DF81C008642FFF640AF8FA000F0F0FB61
:1048F000FFF745FE8D48407D0B280DD2DFE800F024
:10490000060D151E27323F4E5F72870087490968E2
:1049100051F834008047054690E0844A126852F806
:10492000341010988847054688E0804B1B6853F880
:104930003420DDE91001904705467FE07B4F3F685A
:1049400057F8343010A807C89847054676E0DFF8D6
:10495000DCC1DCF800C05CF8347010A80FC8B847A0
:1049600005466BE01498DFF8C4C10090DCF800C085
:104970005CF8347010A80FC8B84705465EE0DDE962
:104980001401DFF8A8C1CDE90001DCF800C05CF833
:10499000347010A80FC8B84705464FE0DDE914127F
:1049A0001698DFF888C1CDE900120290DCF800C04B
:1049B0005CF8347010A80FC8B84705463EE0DDE942
:1049C0001423DDE91610DFF864C1CDE90023CDE939
:1049D0000210DCF800C05CF8347010A80FC8B847AB
:1049E00005462BE0DDE91523DDE91710CDE90123AC
:1049F000CDE903101498DFF834C10090DCF800C052
:104A00005CF8347010A80FC8B847054616E0DDE919
:104A10001623DDE91810CDE90223CDE90410DDE904
:104A20001401DFF808C1CDE90001DCF800C05CF832
:104A3000347010A80FC8B847054600BF00BFFFF785
:104A4000B1FD9DF8180001280CD13848C07D20B96F
:104A5000294637A000F03CFB07E0294636A000F0CD
:104A600037FB02E033A000F033FB304890F8EC0055
:104A700088B12E48D0F8F0000A21B0FBF1F201FB1A
:104A800012072A48D0F8F000B0FBF1F83A46414648
:104A90002CA000F01DFB00BF54E670B53148008823
:104AA00000F40040002833D02E48057800202E491D
:104AB00048551E4881682C48884704461CB91B4944
:104AC000C868804721E02848FFF750FA0546012DC5
:104AD00000D02C46CCB1012C06D0022C08D0032CDF
:104AE0000AD0042C10D10BE020A000F0F1FA0BE06A
:104AF00021A000F0EDFA07E022A000F0E9FA03E0BF
:104B000023A000F0E5FA00BF00BF0020154908808F
:104B100070BD0146086870470160704730582558DD
:104B2000000000002C000000290000007C00002094
:104B30003D256C753B0D0A003D305825583B0D0A4C
:104B40000000000046756E6374696F6E2052756ECA
:104B50002054696D653A25642E2531646D730D0A04
:104B60000000000020000020FA050020BAAFCAFDB6
:104B7000B4EDCEF3210D0A00B2CECAFDB4EDCEF3F2
:104B8000210D0A00B2CECAFDCCABB6E0210D0A0061
:104B9000CEB4D5D2B5BDC6A5C5E4B5C4BAAFCAFDBD
:104BA000210D0A0002460AE010780B78984201D0E5
:104BB00001207047107800B902E0521C491CF3E74D
:104BC00000BF0020F5E706E002780A70027802B91B
:104BD00002E0401C491CF7E700BF70470146002077
:104BE00005E00A7802B903E0421CD0B2491CF8E79C
:104BF00000BF704710B50246012000E050430B1E75
:104C0000A1F10104E1B2F9D110BD2DE9F04307464D
:104C10000E4600254FF00A083C46002030601FE099
:104C20002078392802DC207830280ADA20784628D3
:104C300002DC2078412804DA2078582809D1012D97
:104C400007D12078412801DB4FF01008681CC5B25D
:104C500005E0207800B904E00120BDE8F083641C81
:104C6000DEE700BF3C46B8F1100F0FD1032D01DA8B
:104C70000220F2E72078302806D16078582803D146
:104C8000A41CA81EC5B204E00320E6E70DB9042069
:104C9000E3E71BE00DB1681EC5B22078392806DCB9
:104CA0002078302803DB2078A0F1300902E020785A
:104CB000A0F1370929464046FFF79CFF316809FB00
:104CC00000103060641C207800B900E0E2E700BF0B
:104CD0000020C2E710B50446002010700BE02078D9
:104CE0000870641C491C1078401C107010789842A1
:104CF00001DB012010BD2078202802D02078002878
:104D0000EDD10020087000BFF4E70146491C00E027
:104D1000491C0878202801D10029F9D1087870476A
:104D20002DE9FF4F85B0804689460027002004907A
:104D30000390012002904FF0000B002544461DE037
:104D40002078202816D005F07F00052812DA0DB94A
:104D500045F0800505F07F00042803D120782A283B
:104D600000D00EE0207805F07F010DF80100681CEE
:104D7000C5B202E0852D00D103E0641C2078002834
:104D8000DED100BF8DB1002005F07F010DF80100DC
:104D9000CBA16846FFF706FF18B9002108980170FB
:104DA00002E001210898017000254FF0000A4446F6
:104DB00014E0641C0AF1010000F0FF0A20782028AA
:104DC00002D020782A2809D12046FFF79EFF064608
:104DD000282E03D02A2E01D0CDF810A02078282824
:104DE00002D020780028E4D14446049810B10498F9
:104DF000401C04444FF0000A002654E0207810B90B
:104E00004FF0010A50E02078282803D116B9781C09
:104E1000C7B213E02078292808D13EB917B1781E0F
:104E2000C7B201E04FF0010A47B93DE020782228DF
:104E300004D10EB9012000E00020064647B92078D1
:104E400020282FD0207889F8000009F1010929E0F5
:104E500020782C2804D101200290681CC5B214E0EF
:104E60002078202811D0207828280ED04DB9BBF109
:104E7000050F06DA20780DF80B000BF1010000F0A9
:104E8000FF0B0298401CC0B20290012F0AD1029879
:104E9000022807D10298401CC0B202900398401C1F
:104EA000C0B20390641CA9E700BF0398012809D190
:104EB00000200DF80B0082A16846FFF773FE08B9C9
:104EC00000200390079903980870002089F80000DB
:104ED000504609B0BDE8F08FF0B5034615460020F6
:104EE00000220026002455E01F782C2F01D104B9A0
:104EF00001221F78292F01D01F780FB904B94AE089
:104F0000002E34D11F78302F02DB1F78392F11DDAE
:104F10001F78612F02DB1F78662F0BDD1F78412F72
:104F200002DB1F78462F05DD1F78582F02D01F782F
:104F3000782F0CD102B12EE01F78612F03DB1F7890
:104F4000203F0F7001E01F780F70491C1FE01F7891
:104F5000222F04D102B11EE00126012417E01F78A0
:104F6000202F14D01F782C2F11D0FF2613E01F788C
:104F7000222F00D1002402B10DE044B11F785C2F34
:104F800002D15B1C471CF8B21F780F70491C471CEC
:104F9000F8B25B1CA8E700BF00270F702E70F0BDB1
:104FA00002460020002105E0474B5B5C0344D8B279
:104FB0004B1CD9B29142F7DB70472DE9F043B5B0F5
:104FC00005460F460024002604E000213E48815596
:104FD000701CC6B20A2EF8DB06E06D1C287818B9E2
:104FE000012035B0BDE8F08328782828F5D16D1C64
:104FF00061E034AA69462846FFF76EFF064635444D
:105000009DF8D00020B1012827D0FF284CD149E0DD
:105010009DF8000000B333A96846FFF7F6FD064689
:105020000EB10220DDE72046FFF7BAFF26490A311C
:10503000339A0A50A1F12400008B0121A14088433A
:1050400021491A39088304211F480155601CC4B244
:105050000A2C01DD0320C4E726E06846FFF7BEFD09
:10506000401C00F0FF082046FFF79AFF16490A315E
:1050700000EB010949466846FFF7A5FD12481A38BA
:10508000018B0120A040014388B20F491A390883DF
:105090000D4800F80480601CC4B20A2C01DD032016
:1050A0009FE701E002209CE700BF2878292801D073
:1050B000287800B900E09CE700BF3C70002090E732
:1050C000766F6964000000009600002070470000C1
:1050D0000FB4044910B503AA029800F0F5F910BC0A
:1050E0005DF814FB1C00002070B50446856900685B
:1050F000C10601D5302600E02026C00707D070BDCC
:10510000D4E9012130469047206A401C20626D1E80
:10511000F6D570BD70B5044685690078C00707D123
:1051200070BDD4E9012120209047206A401C2062F4
:105130006D1EF6D570BD70B50C460546012A05D02A
:105140002878800600D5EA69002302E0012305E003
:105150005B1C934202D2E05C0028F9D1A869E618F2
:10516000C01AA861286A184428622846FFF7BCFFC5
:1051700004E0D5E9012114F8010B9047B442F8D3BB
:105180002846FFF7C7FF70BD2DE9F0410646002411
:1051900010687529314616A510D0AFF3008000289D
:1051A00002DA404213A507E031688A0701D512A54B
:1051B00002E0490704D511A5012401E0AFF3008006
:1051C00000210A2206F1240709E0B0FBF2FCB0FB43
:1051D000F2F302FB1C00303078541846491C0028BA
:1051E000F3D123462A463046BDE8F04100F0FCB832
:1051F000000000002D0000002B0000002000000037
:1052000070B504460D4621461068AFF30080218832
:10521000090502D50F4A7A4402E00E4A7A440E325A
:10522000002104F1240305E000F00F060009965D5B
:105230005E54491C0028F7D120780023000704D5CC
:10524000702D02D009B1022311322046BDE8704012
:1052500000F0CAB8062D00002DE9F05F894604462B
:105260004FF0000ADFF874B1FB44C0F820A02046DC
:10527000E1688847002874D0252806D0D4E90121A8
:105280009047206A401C2062F1E700265F462046D6
:10529000E16888472028054607DB312D05D27819BB
:1052A00010F8200C08B10643F1E7B00701D526F04D
:1052B0000406C4F81CA00027C4F818A02A2D09D0A1
:1052C000284600F061F938B304EB8708303DC8F890
:1052D000185019E059F8041B204604EB870291612D
:1052E000E1688847012F054618D1E069002820DAD7
:1052F00026F020061DE0D8F8180000EB800005EB32
:1053000040003038C8F818002046E1688847054654
:1053100000F03AF90028EED1012F0AD02E2D08D145
:105320002046E16888477F1C0546022F46F020068C
:10533000C4DBA069002803DA404246F00106A06100
:10534000F00701D026F010066C2D0BD0682D09D087
:105350004C2D39D06A2D35D0742D35D07A2D33D0DF
:1053600016E038E0E1682F4620468847B8420546F7
:1053700009D16C2F26D04FF48060E16806432046A7
:105380008847054604E06C2F1AD04FF4807006431E
:105390000DB3A5F14100192802D8203546F4006666
:1053A0004A462946204626604E46FAF71BFF80B142
:1053B00001280BD0F61D26F0070000F1080956E77A
:1053C0004020E4E78020D8E70020D6E706F1040972
:1053D0004DE7284652E7206ABDE8F09FDC2C00002C
:1053E00070477047704770472DE9F0470D46994662
:1053F0009246044600F124080168880604D5E06955
:1054000021F01001216000E00120A84201DD471BCE
:1054100000E00027A1697A1902EB0900081AA061CF
:105420002078C00602D42046FFF75EFE002608E082
:10543000D4E901211AF806009047206A401C761C26
:1054400020624E45F4DB2078C0060AD52046FFF7DF
:105450004BFE06E0D4E9012130209047206A401C31
:105460002062381EA7F10107F4DC07E0D4E901212E
:1054700018F805009047206A401C2062281EA5F1FC
:105480000105F3DC2046FFF745FE2078000602D533
:105490000220BDE8F0870120FBE710B5436913B196
:1054A000AFF3008001E0FFF746FE012010BD127847
:1054B00000F124010A7000224A700122EDE7116810
:1054C0004FF0FF32E9E70000074B70B50D467B4413
:1054D00000F011F80446284600F020F810B14FF013
:1054E000FF3070BD204670BD47CCFFFF01694A1CEC
:1054F00002610878704700B58FB0CDE90131002115
:10550000059105497944CDE9031011466846FFF736
:10551000A3FE0FB000BD0000E5FFFFFF007B00F021
:1055200080007047754600F02BF8AE4605006946CE
:10553000534620F00700854618B020B5FCF798FECA
:10554000BDE820404FF000064FF000074FF0000884
:105550004FF0000B21F00701AC46ACE8C009ACE805
:10556000C009ACE8C009ACE8C0098D46704710B569
:105570000446AFF300802046BDE81040FAF750BE65
:1055800000487047C406002030380A2801D20120A4
:1055900070470020704700002DE9F041C1F30A5226
:1055A000A2F2FF362F4A304B0D460446142E2FDA56
:1055B000002E12DA00F090F80022134600F02AFCC8
:1055C0004CD2002DA4BF0024254647DA25F0004028
:1055D000204318BF254D41D018E0DFF894C02CFAC5
:1055E00006F705EA070C5CEA040C08BFBDE8F08189
:1055F00000F072F80022134600F00CFC2ED2002DB1
:1056000003DA4FF48010F0400544BD43002425E048
:10561000332EC8BFBDE8F081A6F1140C4FF0FF3760
:1056200027FA0CF73C4208BFBDE8F08100F028FCE7
:105630000022134600F0EEFB10D2002D0DDA142EDE
:1056400008BF6D1C09D0C6F13400012101FA00F039
:105650002044A04238BF6D1C0446BC432946204666
:10566000BDE8F0819C7500883CE4377E0000F0BF07
:10567000FFFF0F0021F00042A2F16052B2F5801F3F
:1056800001F0004328BFD2F17F6C0BD95FEA001C08
:1056900043EAC20242EB507018BF704728BF20F0A7
:1056A00001007047B2F5801FBCBF184670474FEA33
:1056B000410C1CF5001F02D2084600F048BD70B531
:1056C00000F054FB00000089FFF7F6BF4FF00040E8
:1056D000A0F580007047000010B591EA030F48BFA5
:1056E00083F0004300F1E083841A71EB030C05D2D0
:1056F000121943EB0C03001B61EB0C01DFF824E1F2
:105700004FEA1154A4EB135C1EEA430F18BF9EEA44
:10571000445F73D023EA0E03DCF1200E21EA04512A
:1057200043F4801332D322FA0CFE10EB0E0023FA5E
:105730000CFE41EB0E01CCF1200E03FA0EFE10EB35
:105740000E0051F10001B1F5801FCCF1200E32D2D4
:1057500001EB045112FA0EF2BDE8104058BF704739
:10576000401C38BF5FEA420218BF7047002814BFD0
:1057700020F0010041F100014FEA410313F5001F41
:1057800038BF7047A1F1C04100F03EBB012A43EB96
:105790000302ACF1200CDCF11F0E32BF4FF0000E03
:1057A00023FA0CF310EB030041EB0451B4EB115F4F
:1057B000D0D0A1EB045101F5801149085FEA300017
:1057C00001EB04510ED350F1000038BF12FA0EFE67
:1057D00008D1BDE81040C9E7401C38BF5FEA42026B
:1057E000CAD1C3E7BDE810404FEA410313F5001FDB
:1057F00038BF7047A1F1C04100F006BB9EEA445F8C
:1058000008D011EA5E0FBDE8104004BF01F000416E
:1058100000207047BDE8104070B500F0A7FA00BF47
:1058200064FBBE3E0000E0FF491058BFC1F140419B
:105830005B1058BFC3F140438B42EFF300807047C9
:105840002DE9C04130B4DFF8A0C23CEA111418BF02
:105850003CEA131400F0EC8081EA03051CEA111401
:1058600044EAD57418BF1CEA131500F0C780A4EBF6
:1058700005044FF0004545EAC12145EAC32341EA4A
:10588000505143EA525304F17F74994204F50034B5
:105890004FEAC0204FEAC22208BF904200F09C802D
:1058A0004FEA13650FF24016765D4FEA134506FB8B
:1058B00005F7C7F1807706FB07F74FEAD737A7FB55
:1058C00003687642C8F58038A7FB06CE38BFA8F13A
:1058D000010807FB08E64FF0000EA6FB028CE6FB72
:1058E00003CEDCF1000CCEF1004E38BFAEF1010E5C
:1058F000A6FB0C584FF000074FF00005E6FB0E87A3
:10590000A1FB08C6A0FB07CE16EB0E0645F100056D
:10591000E1FB076515F1E04E7EBFA4F580345FEA38
:1059200046066D4116F1800745F100054FEA17273D
:105930004FEA066647EA0567A6F1DE46B6F1805FE4
:105940004FEA15251FD9384624F0010C05EBC47128
:10595000BCF1FE6F01EB0C1102D8F0BCBDE8008178
:1059600024425CBF01F5801E9EEAC47F02D4F0BCD5
:10597000BDE80081244238D4F0BCA1F1C041BDE8AB
:10598000004100F041BA4FEAD22242EA43524FEAC4
:10599000D323A7FB02864FEAD02040EA415007FB01
:1059A00003661EEA0E0F4FEAD12105FB026658BFBF
:1059B000A6EB0056B6EB00564FEA520E4EEAC37EF7
:1059C00018EB0E0E56EB530EBDD518EB02085E41D8
:1059D0007F1C55F10005B6E74FF480154FF0000726
:1059E0004FF000064FF00008ADE7F0BC4FF00000AC
:1059F00001F1C04101F00041BDE8008111EA0C1F36
:105A00000CEA131500D00CE013EA0C1F00F02580FF
:105A10004FF00000F0BC81EA030101F00041BDE855
:105A20000081F0BCBDE8004181EA030100F0ECB95F
:105A3000F0BCBDE8004170B500F098F9097EFC3E6D
:105A400000F007B881EA03014FF0000001F00041C7
:105A5000704781EA030100F0D7B9F0BCBDE800410E
:105A60004FF0000021497047FFFDFBF9F7F5F4F214
:105A7000F0EEEDEBE9E8E6E4E3E1E0DEDDDBDAD8E9
:105A8000D7D5D4D3D1D0CFCDCCCBCAC8C7C6C5C447
:105A9000C2C1C0BFBEBDBCBBBAB9B8B7B6B5B4B35E
:105AA000B2B1B0AFAEADACABAAA9A8A8A7A6A5A449
:105AB000A3A3A2A1A09F9F9E9D9C9C9B9A9999980D
:105AC0009797969595949393929191908F8F8E8EB0
:105AD0008D8C8C8B8B8A898988888787868585843D
